{
  "_format": "hh-sol-artifact-1",
  "contractName": "TokenSale",
  "sourceName": "contracts/TokenSale.sol",
  "abi": [
    {
      "inputs": [
        {
          "internalType": "address",
          "name": "_ndToken",
          "type": "address"
        },
        {
          "internalType": "address",
          "name": "initialOwner",
          "type": "address"
        }
      ],
      "stateMutability": "nonpayable",
      "type": "constructor"
    },
    {
      "inputs": [
        {
          "internalType": "address",
          "name": "owner",
          "type": "address"
        }
      ],
      "name": "OwnableInvalidOwner",
      "type": "error"
    },
    {
      "inputs": [
        {
          "internalType": "address",
          "name": "account",
          "type": "address"
        }
      ],
      "name": "OwnableUnauthorizedAccount",
      "type": "error"
    },
    {
      "anonymous": false,
      "inputs": [
        {
          "indexed": true,
          "internalType": "address",
          "name": "previousOwner",
          "type": "address"
        },
        {
          "indexed": true,
          "internalType": "address",
          "name": "newOwner",
          "type": "address"
        }
      ],
      "name": "OwnershipTransferred",
      "type": "event"
    },
    {
      "inputs": [],
      "name": "buyTokens",
      "outputs": [],
      "stateMutability": "payable",
      "type": "function"
    },
    {
      "inputs": [],
      "name": "ndToken",
      "outputs": [
        {
          "internalType": "contract IERC20",
          "name": "",
          "type": "address"
        }
      ],
      "stateMutability": "view",
      "type": "function"
    },
    {
      "inputs": [],
      "name": "owner",
      "outputs": [
        {
          "internalType": "address",
          "name": "",
          "type": "address"
        }
      ],
      "stateMutability": "view",
      "type": "function"
    },
    {
      "inputs": [],
      "name": "rate",
      "outputs": [
        {
          "internalType": "uint256",
          "name": "",
          "type": "uint256"
        }
      ],
      "stateMutability": "view",
      "type": "function"
    },
    {
      "inputs": [],
      "name": "renounceOwnership",
      "outputs": [],
      "stateMutability": "nonpayable",
      "type": "function"
    },
    {
      "inputs": [],
      "name": "tokensSold",
      "outputs": [
        {
          "internalType": "uint256",
          "name": "",
          "type": "uint256"
        }
      ],
      "stateMutability": "view",
      "type": "function"
    },
    {
      "inputs": [
        {
          "internalType": "address",
          "name": "newOwner",
          "type": "address"
        }
      ],
      "name": "transferOwnership",
      "outputs": [],
      "stateMutability": "nonpayable",
      "type": "function"
    },
    {
      "inputs": [],
      "name": "withdrawBNB",
      "outputs": [],
      "stateMutability": "nonpayable",
      "type": "function"
    },
    {
      "inputs": [],
      "name": "withdrawUnsoldTokens",
      "outputs": [],
      "stateMutability": "nonpayable",
      "type": "function"
    },
    {
      "stateMutability": "payable",
      "type": "receive"
    }
  ],
  "bytecode": "0x6080604052610e106002553480156200001757600080fd5b5060405162000e7338038062000e7383398181016040528101906200003d91906200023c565b80600073ffffffffffffffffffffffffffffffffffffffff168173ffffffffffffffffffffffffffffffffffffffff1603620000b35760006040517f1e4fbdf7000000000000000000000000000000000000000000000000000000008152600401620000aa919062000294565b60405180910390fd5b620000c4816200010e60201b60201c565b5081600160006101000a81548173ffffffffffffffffffffffffffffffffffffffff021916908373ffffffffffffffffffffffffffffffffffffffff1602179055505050620002b1565b60008060009054906101000a900473ffffffffffffffffffffffffffffffffffffffff169050816000806101000a81548173ffffffffffffffffffffffffffffffffffffffff021916908373ffffffffffffffffffffffffffffffffffffffff1602179055508173ffffffffffffffffffffffffffffffffffffffff168173ffffffffffffffffffffffffffffffffffffffff167f8be0079c531659141344cd1fd0a4f28419497f9722a3daafe3b4186f6b6457e060405160405180910390a35050565b600080fd5b600073ffffffffffffffffffffffffffffffffffffffff82169050919050565b60006200020482620001d7565b9050919050565b6200021681620001f7565b81146200022257600080fd5b50565b60008151905062000236816200020b565b92915050565b60008060408385031215620002565762000255620001d2565b5b6000620002668582860162000225565b9250506020620002798582860162000225565b9150509250929050565b6200028e81620001f7565b82525050565b6000602082019050620002ab600083018462000283565b92915050565b610bb280620002c16000396000f3fe60806040526004361061008a5760003560e01c80638da5cb5b116100595780638da5cb5b14610122578063a776aaaf1461014d578063c8bdbfb614610178578063d0febe4c1461018f578063f2fde38b1461019957610099565b80631d111d131461009e5780632c4e722e146100b5578063518ab2a8146100e0578063715018a61461010b57610099565b36610099576100976101c2565b005b600080fd5b3480156100aa57600080fd5b506100b36103b2565b005b3480156100c157600080fd5b506100ca61040a565b6040516100d791906107b8565b60405180910390f35b3480156100ec57600080fd5b506100f5610410565b60405161010291906107b8565b60405180910390f35b34801561011757600080fd5b50610120610416565b005b34801561012e57600080fd5b5061013761042a565b6040516101449190610814565b60405180910390f35b34801561015957600080fd5b50610162610453565b60405161016f919061088e565b60405180910390f35b34801561018457600080fd5b5061018d610479565b005b6101976101c2565b005b3480156101a557600080fd5b506101c060048036038101906101bb91906108da565b6105c6565b005b60003411610205576040517f08c379a00000000000000000000000000000000000000000000000000000000081526004016101fc90610964565b60405180910390fd5b60006002543461021591906109b3565b905080600160009054906101000a900473ffffffffffffffffffffffffffffffffffffffff1673ffffffffffffffffffffffffffffffffffffffff166370a08231306040518263ffffffff1660e01b81526004016102739190610814565b602060405180830381865afa158015610290573d6000803e3d6000fd5b505050506040513d601f19601f820116820180604052508101906102b49190610a21565b10156102f5576040517f08c379a00000000000000000000000000000000000000000000000000000000081526004016102ec90610a9a565b60405180910390fd5b600160009054906101000a900473ffffffffffffffffffffffffffffffffffffffff1673ffffffffffffffffffffffffffffffffffffffff1663a9059cbb33836040518363ffffffff1660e01b8152600401610352929190610aba565b6020604051808303816000875af1158015610371573d6000803e3d6000fd5b505050506040513d601f19601f820116820180604052508101906103959190610b1b565b5080600360008282546103a89190610b48565b9250508190555050565b6103ba61064c565b6103c261042a565b73ffffffffffffffffffffffffffffffffffffffff166108fc479081150290604051600060405180830381858888f19350505050158015610407573d6000803e3d6000fd5b50565b60025481565b60035481565b61041e61064c565b61042860006106d3565b565b60008060009054906101000a900473ffffffffffffffffffffffffffffffffffffffff16905090565b600160009054906101000a900473ffffffffffffffffffffffffffffffffffffffff1681565b61048161064c565b600160009054906101000a900473ffffffffffffffffffffffffffffffffffffffff1673ffffffffffffffffffffffffffffffffffffffff1663a9059cbb6104c761042a565b600160009054906101000a900473ffffffffffffffffffffffffffffffffffffffff1673ffffffffffffffffffffffffffffffffffffffff166370a08231306040518263ffffffff1660e01b81526004016105229190610814565b602060405180830381865afa15801561053f573d6000803e3d6000fd5b505050506040513d601f19601f820116820180604052508101906105639190610a21565b6040518363ffffffff1660e01b8152600401610580929190610aba565b6020604051808303816000875af115801561059f573d6000803e3d6000fd5b505050506040513d601f19601f820116820180604052508101906105c39190610b1b565b50565b6105ce61064c565b600073ffffffffffffffffffffffffffffffffffffffff168173ffffffffffffffffffffffffffffffffffffffff16036106405760006040517f1e4fbdf70000000000000000000000000000000000000000000000000000000081526004016106379190610814565b60405180910390fd5b610649816106d3565b50565b610654610797565b73ffffffffffffffffffffffffffffffffffffffff1661067261042a565b73ffffffffffffffffffffffffffffffffffffffff16146106d157610695610797565b6040517f118cdaa70000000000000000000000000000000000000000000000000000000081526004016106c89190610814565b60405180910390fd5b565b60008060009054906101000a900473ffffffffffffffffffffffffffffffffffffffff169050816000806101000a81548173ffffffffffffffffffffffffffffffffffffffff021916908373ffffffffffffffffffffffffffffffffffffffff1602179055508173ffffffffffffffffffffffffffffffffffffffff168173ffffffffffffffffffffffffffffffffffffffff167f8be0079c531659141344cd1fd0a4f28419497f9722a3daafe3b4186f6b6457e060405160405180910390a35050565b600033905090565b6000819050919050565b6107b28161079f565b82525050565b60006020820190506107cd60008301846107a9565b92915050565b600073ffffffffffffffffffffffffffffffffffffffff82169050919050565b60006107fe826107d3565b9050919050565b61080e816107f3565b82525050565b60006020820190506108296000830184610805565b92915050565b6000819050919050565b600061085461084f61084a846107d3565b61082f565b6107d3565b9050919050565b600061086682610839565b9050919050565b60006108788261085b565b9050919050565b6108888161086d565b82525050565b60006020820190506108a3600083018461087f565b92915050565b600080fd5b6108b7816107f3565b81146108c257600080fd5b50565b6000813590506108d4816108ae565b92915050565b6000602082840312156108f0576108ef6108a9565b5b60006108fe848285016108c5565b91505092915050565b600082825260208201905092915050565b7f53656e6420424e4220746f2062757920746f6b656e7300000000000000000000600082015250565b600061094e601683610907565b915061095982610918565b602082019050919050565b6000602082019050818103600083015261097d81610941565b9050919050565b7f4e487b7100000000000000000000000000000000000000000000000000000000600052601160045260246000fd5b60006109be8261079f565b91506109c98361079f565b92508282026109d78161079f565b915082820484148315176109ee576109ed610984565b5b5092915050565b6109fe8161079f565b8114610a0957600080fd5b50565b600081519050610a1b816109f5565b92915050565b600060208284031215610a3757610a366108a9565b5b6000610a4584828501610a0c565b91505092915050565b7f4e6f7420656e6f75676820746f6b656e7320696e20636f6e7472616374000000600082015250565b6000610a84601d83610907565b9150610a8f82610a4e565b602082019050919050565b60006020820190508181036000830152610ab381610a77565b9050919050565b6000604082019050610acf6000830185610805565b610adc60208301846107a9565b9392505050565b60008115159050919050565b610af881610ae3565b8114610b0357600080fd5b50565b600081519050610b1581610aef565b92915050565b600060208284031215610b3157610b306108a9565b5b6000610b3f84828501610b06565b91505092915050565b6000610b538261079f565b9150610b5e8361079f565b9250828201905080821115610b7657610b75610984565b5b9291505056fea26469706673582212208d5268ca3250381f0855cbc462018b580b92bed10372e459983c1b6f8cb9bfd064736f6c63430008140033",
  "linkReferences": {},
  "deployedLinkReferences": {}
}